:020000040800F2
:100000006806002039020008410200084302000887
:1000100045020008470200084902000800000000ED
:100020000000000000000000000000004B0200087B
:100030004D020008000000004F02000851020008B5
:10004000530200085302000853020008530200083C
:10005000530200085302000853020008530200082C
:10006000530200085302000853020008530200081C
:10007000530200085302000853020008530200080C
:100080005302000853020008530200080000000059
:100090000000000000000000000000005302000803
:1000A00053020008530200085302000853020008DC
:1000B00053020008530200085302000853020008CC
:1000C00053020008530200085302000853020008BC
:1000D0005302000853020008530200080000000009
:1000E00053020008530200085302000800000000F9
:1000F00000000000000000000000000053020008A3
:1001000000000000530200085302000853020008D8
:1001100000000000000000000000000000000000DF
:10012000530200085302000853020008530200085B
:100130005302000800000000000000000000000062
:100140000000000000000000000000005302000852
:10015000530200085302000853020008530200082B
:1001600053020008530200080000000000000000D5
:10017000000000000000000000000000000000007F
:100180000000000053020008000000000000000012
:10019000530200085302000800F002F800F03CF897
:1001A0000AA090E8000C82448344AAF10107DA45D2
:1001B00001D100F031F8AFF2090EBAE80F0013F0E8
:1001C000010F18BFFB1A43F0010318473C0200005F
:1001D0005C020000103A24BF78C878C1FAD85207F0
:1001E00024BF30C830C144BF04680C6070470000B1
:1001F0000023002400250026103A28BF78C1FBD830
:10020000520728BF30C148BF0B6070471FB500F0D0
:10021000EEF81FBD10B510BD00F031F81146FFF724
:10022000F5FF00F0AFF800F04FF803B4FFF7F2FF6E
:1002300003BC00F057F80000094880470948004710
:10024000FEE7FEE7FEE7FEE7FEE7FEE7FEE7FEE786
:10025000FEE7FEE704480549054A064B70470000E3
:10026000710300089901000868000020680600205A
:10027000680200206802002070477047704775468A
:1002800000F02CF8AE4605006946534620F0070002
:10029000854618B020B5FFF7DDFFBDE820404FF0E0
:1002A00000064FF000074FF000084FF0000BAC467F
:1002B000ACE8C009ACE8C009ACE8C009ACE8C009CA
:1002C00021F007018D46704710B50446AFF300805A
:1002D0002046BDE81040FFF7A8BF00000048704767
:1002E0000800002001491820ABBEFEE726000200EE
:1002F0007047000080B500F009F843F63001C4F201
:100300000201086840F00100086080BD43F600016A
:10031000C4F20201086840F001000860FFE743F6FC
:100320000000C4F2020000688007002801D4FFE743
:10033000F5E743F60801C4F20201086820F0030063
:10034000086008680860FFE743F60800C4F202008E
:10035000006810F00C0F01D0FFE7F5E740F2000154
:10036000C2F2000142F20040C0F2F400086070479F
:100370004EF68851CEF20001086840F47000086023
:100380007047000080B582B000200190FFF7B2FFF7
:100390000021C4F20201086820F440600860086887
:1003A00040F4806008600421C4F20201086820F073
:1003B000200008600C21C4F20201086820F44060AB
:1003C0000860086808600821C4F20201086820F487
:1003D00040600860086840F400600860FFE714218E
:1003E000C4F20201086840F020000860F7E7F1EE6F
:1003F000100A4FF6FF71C0F2C03120EA010040F050
:100400004070E1EE100A7047280400080000002048
:1004100008000000D4010008300400080800002093
:1004200060060000F00100080024F4000000000055
:040000050800019955
:00000001FF
