:020000040800F2
:10000000A806002039020008410200084302000847
:1000100045020008470200084902000800000000ED
:100020000000000000000000000000004B0200087B
:100030004D020008000000004F02000851020008B5
:10004000530200085302000853020008530200083C
:10005000530200085302000853020008530200082C
:10006000530200085302000853020008530200081C
:10007000530200085302000853020008530200080C
:100080005302000853020008530200080000000059
:100090000000000000000000000000005302000803
:1000A00053020008530200085302000853020008DC
:1000B00053020008530200085302000853020008CC
:1000C00053020008530200085302000853020008BC
:1000D0005302000853020008530200080000000009
:1000E00053020008530200085302000800000000F9
:1000F00000000000000000000000000053020008A3
:1001000000000000530200085302000853020008D8
:1001100000000000000000000000000000000000DF
:10012000530200085302000853020008530200085B
:100130005302000800000000000000000000000062
:100140000000000000000000000000005302000852
:10015000530200085302000853020008530200082B
:1001600053020008530200080000000000000000D5
:10017000000000000000000000000000000000007F
:100180000000000053020008000000000000000012
:10019000530200085302000800F002F800F03CF897
:1001A0000AA090E8000C82448344AAF10107DA45D2
:1001B00001D100F031F8AFF2090EBAE80F0013F0E8
:1001C000010F18BFFB1A43F0010318470805000090
:1001D00028050000103A24BF78C878C1FAD8520721
:1001E00024BF30C830C144BF04680C6070470000B1
:1001F0000023002400250026103A28BF78C1FBD830
:10020000520728BF30C148BF0B6070471FB500F0D0
:1002100054FA1FBD10B510BD00F031F81146FFF7BC
:10022000F5FF00F0A1F900F04FF803B4FFF7F2FF7B
:1002300003BC00F057F80000094880470948004710
:10024000FEE7FEE7FEE7FEE7FEE7FEE7FEE7FEE786
:10025000FEE7FEE704480549054A064B70470000E3
:10026000ED04000899010008A8000020A80600205D
:10027000A8020020A802002070477047704775460A
:1002800000F02CF8AE4605006946534620F0070002
:10029000854618B020B5FFF7DDFFBDE820404FF0E0
:1002A00000064FF000074FF000084FF0000BAC467F
:1002B000ACE8C009ACE8C009ACE8C009ACE8C009CA
:1002C00021F007018D46704710B50446AFF300805A
:1002D0002046BDE81040FFF7A8BF00000048704767
:1002E0004800002001491820ABBEFEE726000200AE
:1002F0007047000080B584B003900291019203988A
:100300000021C4F20201884203D1FFE700F098F80F
:10031000FFE7039840F20041C4F20201884203D192
:10032000FFE700F099F8FFE7039840F60001C4F2F8
:100330000201884203D1FFE700F09AF8FFE7039833
:100340000299019A00F002F804B080BD83B00290D7
:100350000191009201984100032000FA01F20299F4
:1003600008689043086000980199490000FA01F27A
:10037000029908681043086003B0704783B0029088
:100380000191009201984100032000FA01F20299C4
:1003900088689043886000980199490000FA01F24A
:1003A000029988681043886003B0704783B0029058
:1003B000019100920098019900FA01F202994868AF
:1003C0009043486003B0704783B00290019100925F
:1003D00001984100032000FA01F20299C868904395
:1003E000C86000980199490000FA01F20299C868B2
:1003F0001043C86003B0704783B002900191029827
:1004000000690199C84000F001000090009803B015
:100410007047000083B00290019100920199012081
:1004200000FA01F2029948699043486100980199E5
:1004300000FA01F2029948691043486103B070471D
:1004400080B500F021F843F63001C4F202010868DB
:1004500040F00100086080BD80B500F015F843F65B
:100460003001C4F20201086840F00200086080BD5B
:1004700080B500F009F843F63001C4F202010868C3
:1004800040F00400086080BD43F60001C4F20201A0
:10049000086840F001000860FFE743F60000C4F27E
:1004A000020000688007002801D4FFE7F5E743F663
:1004B0000801C4F20201086820F00300086008681F
:1004C0000860FFE743F60800C4F20200006810F07D
:1004D0000C0F01D0FFE7F5E740F20001C2F2000186
:1004E00042F20040C0F2F400086070474EF68851B6
:1004F000CEF20001086840F4700008607047000008
:1005000080B584B003900398010140F20400C2F268
:100510000000019042580020C4F202000090052122
:10052000FFF778FF00980199039A01EB02114A68DE
:1005300006210291FFF76EFF00980199039A01EBE3
:1005400002118A680721FFF765FF01980299039A53
:1005500000EB0210C26840F20040C4F20200FFF754
:1005600059FF04B080BD000080B584B00020009029
:10057000039000F031F800980290FFE70298C1174D
:1005800000EB917121F00301401AFFF7B9FF40F62B
:100590000000C4F202000D21FFF72EFF20B9FFE793
:1005A000029801300290FFE70298042803DBFFE77E
:1005B00000200290FFE700200190FFE7019849F238
:1005C000DF31C0F20401884205DCFFE7FFE7019854
:1005D00001300190F2E7D1E780B58AB0FFF754FF10
:1005E00040F60000C4F2020001900D2102910022A9
:1005F0000692FFF77FFE0198029901220992FFF708
:10060000E3FE099A0020C4F2020004900521039140
:10061000FFF770FE03990498069AFFF7C7FE039947
:100620000498099AFFF7D0FE03990498099AFFF7F6
:10063000A5FE0498099A06210891FFF75BFE04982D
:10064000069A0899FFF7B2FE04980899099AFFF7ED
:10065000BBFE04980899099AFFF790FE0498099A3E
:1006600007210591FFF746FE04980599069AFFF7C2
:100670009DFE04980599099AFFF7A6FE049805992E
:10068000099AFFF77BFE0899099A40F20040C4F2EC
:1006900002000790FFF72EFE069A07980899FFF7C9
:1006A00085FE07980899099AFFF78EFE0798089922
:1006B000099AFFF763FE0AB080BDF1EE100A4FF60B
:1006C000FF71C0F2C03120EA010040F04070E1EE5D
:1006D000100A7047F80600080000002048000000DB
:1006E000D401000840070008480000206006000010
:1006F000F0010008000000000024F40001000000E8
:1007000000000000000000000000000000000000E9
:1007100001000000000000000000000000000000D8
:1007200000000000010000000000000000000000C8
:1007300000000000000000000100000000000000B8
:040000050800019955
:00000001FF
