:020000040800F2
:10000000700600203902000841020008430200087F
:1000100045020008470200084902000800000000ED
:100020000000000000000000000000004B0200087B
:100030004D020008000000004F02000851020008B5
:10004000530200085302000853020008530200083C
:10005000530200085302000853020008530200082C
:10006000530200085302000853020008530200081C
:10007000530200085302000853020008530200080C
:100080005302000853020008530200080000000059
:100090000000000000000000000000005302000803
:1000A00053020008530200085302000853020008DC
:1000B0000D0600085302000853020008530200080E
:1000C00053020008530200085302000853020008BC
:1000D0005302000853020008530200080000000009
:1000E00053020008530200085302000800000000F9
:1000F00000000000000000000000000053020008A3
:1001000000000000530200085302000853020008D8
:1001100000000000000000000000000000000000DF
:10012000530200085302000853020008530200085B
:100130005302000800000000000000000000000062
:100140000000000000000000000000005302000852
:10015000530200085302000853020008530200082B
:1001600053020008530200080000000000000000D5
:10017000000000000000000000000000000000007F
:100180000000000053020008000000000000000012
:10019000530200085302000800F002F800F03CF897
:1001A0000AA090E8000C82448344AAF10107DA45D2
:1001B00001D100F031F8AFF2090EBAE80F0013F0E8
:1001C000010F18BFFB1A43F0010318478805000010
:1001D000A8050000103A24BF78C878C1FAD85207A1
:1001E00024BF30C830C144BF04680C6070470000B1
:1001F0000023002400250026103A28BF78C1FBD830
:10020000520728BF30C148BF0B6070471FB500F0D0
:1002100094FA1FBD10B510BD00F031F81146FFF77C
:10022000F5FF00F053FA00F04FF803B4FFF7F2FFC8
:1002300003BC00F057F80000094880470948004710
:10024000FEE7FEE7FEE7FEE7FEE7FEE7FEE7FEE786
:10025000FEE7FEE704480549054A064B70470000E3
:10026000F9050008990100087000002070060020C0
:10027000700200207002002070477047704775467A
:1002800000F02CF8AE4605006946534620F0070002
:10029000854618B020B5FFF7DDFFBDE820404FF0E0
:1002A00000064FF000074FF000084FF0000BAC467F
:1002B000ACE8C009ACE8C009ACE8C009ACE8C009CA
:1002C00021F007018D46704710B50446AFF300805A
:1002D0002046BDE81040FFF7A8BF00000048704767
:1002E0000800002001491820ABBEFEE726000200EE
:1002F0007047000080B584B003900291019203988A
:100300000021C4F20201884203D1FFE700F094F813
:10031000FFE7039840F20041C4F20201884203D192
:10032000FFE700F095F8FFE7039840F60001C4F2FC
:100330000201884203D1FFE700F096F8FFE7039837
:1003400040F60041C4F20201884203D1FFE700F009
:100350007FF8FFE7039841F20001C4F202018842EE
:1003600003D1FFE700F080F8FFE703980299019AB4
:1003700000F002F804B080BD83B0029001910092B9
:1003800001984100032000FA01F2029908689043A5
:10039000086000980199490000FA01F20299086882
:1003A0001043086003B0704783B002900191029837
:1003B00000690199C84000F001000090009803B066
:1003C0007047000083B002900191009201990120D2
:1003D00000FA01F202994869904348610098019936
:1003E00000FA01F2029948691043486103B070476E
:1003F00080B540F60000C4F202000D21FFF7D4FFE3
:10040000C8B9FFE70020C4F202000521FFF7CCFFC6
:1004100040B9FFE70020C4F2020005210122FFF7E6
:10042000D1FF07E00020C4F2020005210022FFF7FF
:10043000C9FFFFE7FFE780BD80B500F021F843F674
:100440003001C4F20201086840F00100086080BD7C
:1004500080B500F015F843F63001C4F202010868D7
:1004600040F00200086080BD80B500F009F843F656
:100470003001C4F20201086840F00400086080BD49
:1004800043F60001C4F20201086840F00100086070
:10049000FFE743F60000C4F202000068800700286E
:1004A00001D4FFE7F5E743F60801C4F2020108684A
:1004B00020F00300086008680860FFE743F60800C2
:1004C000C4F20200006810F00C0F01D0FFE7F5E75E
:1004D00040F20001C2F2000142F20040C0F2F4001A
:1004E0000860704781B043F60041C4F20201086819
:1004F00020F007000860086840F00200086043F63A
:100500000001C4F20201086840F001000860FFE742
:1005100043F60000C4F2020000688007002801D4FE
:10052000FFE7F5E743F60001C4F20201086820F096
:100530008070086043F60402C4F202020092106860
:1005400020F480001060106810601068542363F37A
:100550008E1010601068082363F3050010601068A7
:1005600020F440301060086840F080700860FFE7B9
:1005700043F60000C4F20200006800F000710020A1
:10058000B0EB516F01D0FFE7F2E743F60801C4F288
:100590000201086820F003000860086840F00200CB
:1005A0000860FFE743F60800C4F20200006800F0AC
:1005B0000C00082801D0FFE7F4E743F60801C4F275
:1005C0000201086820F0F0000860086820F4E0509C
:1005D0000860086840F480500860086820F46040B3
:1005E000086040F20001C2F200014BF60050C0F278
:1005F0000150086001B070474EF68851CEF20001FC
:10060000086840F4700008607047000080B5102052
:10061000C4F200000068C007E8B1FFE740F26800DC
:10062000C2F200000168013101600068B0F57A7F14
:1006300009D9FFE7FFF7DCFE40F26801C2F20001D2
:1006400000200860FFE71021C4F20001086820F0D4
:1006500001000860FFE780BD81B08DF803009DF9BF
:10066000030000280ED4FFE79DF9031001F01F02DC
:10067000012090404A094EF20011CEF2000141F8EB
:100680002200FFE701B0704782B08DF807000091AB
:100690009DF9070000280AD4FFE7009800019DF9A2
:1006A00007104EF20042CEF2000288540BE0009890
:1006B00000019DF8071001F00F014EF61452CEF222
:1006C00000028854FFE702B07047000080B584B094
:1006D0000020039000F026F84FF08040029043F68F
:1006E0004001C4F20201086840F00100086002996C
:1006F00040F24730886202996320C8620299C86854
:1007000040F00100C8600299086840F001000860EC
:100710001C2001900221FFF7B7FF0198FFF79CFF13
:10072000FFE7FEE780B5FFF7DDFE0020C4F2020020
:1007300005210122FFF7DEFD80BDF1EE100A4FF624
:10074000FF71C0F2C03120EA010040F04070E1EEDC
:10075000100A704778070008000000200800000019
:10076000D401000880070008080000206806000087
:10077000F0010008000000000024F4000000000068
:040000050800019955
:00000001FF
