:020000040800F2
:100000006806002039020008410200084302000887
:1000100045020008470200084902000800000000ED
:100020000000000000000000000000004B0200087B
:100030004D020008000000004F02000851020008B5
:10004000530200085302000853020008530200083C
:10005000530200085302000853020008530200082C
:10006000530200085302000853020008530200081C
:10007000530200085302000853020008530200080C
:100080005302000853020008530200080000000059
:100090000000000000000000000000005302000803
:1000A00053020008530200085302000853020008DC
:1000B00053020008530200085302000853020008CC
:1000C00053020008530200085302000853020008BC
:1000D0005302000853020008530200080000000009
:1000E00053020008530200085302000800000000F9
:1000F00000000000000000000000000053020008A3
:1001000000000000530200085302000853020008D8
:1001100000000000000000000000000000000000DF
:10012000530200085302000853020008530200085B
:100130005302000800000000000000000000000062
:100140000000000000000000000000005302000852
:10015000530200085302000853020008530200082B
:1001600053020008530200080000000000000000D5
:10017000000000000000000000000000000000007F
:100180000000000053020008000000000000000012
:10019000530200085302000800F002F800F03CF897
:1001A0000AA090E8000C82448344AAF10107DA45D2
:1001B00001D100F031F8AFF2090EBAE80F0013F0E8
:1001C000010F18BFFB1A43F001031847A0030000FA
:1001D000C0030000103A24BF78C878C1FAD852078B
:1001E00024BF30C830C144BF04680C6070470000B1
:1001F0000023002400250026103A28BF78C1FBD830
:10020000520728BF30C148BF0B6070471FB500F0D0
:10021000A0F91FBD10B510BD00F031F81146FFF771
:10022000F5FF00F01DF900F04FF803B4FFF7F2FFFF
:1002300003BC00F057F80000094880470948004710
:10024000FEE7FEE7FEE7FEE7FEE7FEE7FEE7FEE786
:10025000FEE7FEE704480549054A064B70470000E3
:100260004D0400089901000868000020680600207D
:10027000680200206802002070477047704775468A
:1002800000F02CF8AE4605006946534620F0070002
:10029000854618B020B5FFF7DDFFBDE820404FF0E0
:1002A00000064FF000074FF000084FF0000BAC467F
:1002B000ACE8C009ACE8C009ACE8C009ACE8C009CA
:1002C00021F007018D46704710B50446AFF300805A
:1002D0002046BDE81040FFF7A8BF00000048704767
:1002E0000800002001491820ABBEFEE726000200EE
:1002F0007047000080B584B003900291019203988A
:100300000021C4F20201884203D1FFE700F048F85F
:10031000FFE7039840F20041C4F20201884203D192
:10032000FFE700F049F8FFE7039840F60001C4F248
:100330000201884203D1FFE700F04AF8FFE7039883
:100340000299019A00F002F804B080BD83B00290D7
:100350000191009200980199490000FA01F2029976
:1003600008689043086000980199490000FA01F27A
:10037000029908681043086003B0704783B0029088
:10038000019100920299486948610098019900FA28
:1003900001F2029948691043486103B070470000B8
:1003A00080B500F021F843F63001C4F2020108687C
:1003B00040F00100086080BD80B500F015F843F6FC
:1003C0003001C4F20201086840F00200086080BDFC
:1003D00080B500F009F843F63001C4F20201086864
:1003E00040F00400086080BD43F60001C4F2020141
:1003F000086840F001000860FFE743F60000C4F21F
:10040000020000688007002801D4FFE7F5E743F603
:100410000801C4F20201086820F0030008600868BF
:100420000860FFE743F60800C4F20200006810F01D
:100430000C0F01D0FFE7F5E740F20001C2F2000126
:1004400042F20040C0F2F400086070474EF6885156
:10045000CEF20001086840F47000086070470000A8
:1004600080B588B00020079000F038F8FFE7002042
:10047000C4F202000390052100220492FFF77EFFE0
:1004800003980621019101220692FFF777FF039856
:10049000069A07210291FFF771FF0199069A40F22F
:1004A0000040C4F202000590FFF768FF0299049A29
:1004B00040F60000C4F20200FFF760FF0398049AC0
:1004C0000921FFF75BFF0398049A0821FFF756FF05
:1004D0000598069A0A21FFF751FFC8E780B586B054
:1004E000FFF782FF0020C4F20200039005210122E1
:1004F0000592FFF7FFFE0398059A06210191FFF789
:10050000F9FE0398059A07210291FFF7F3FE01997E
:10051000059A40F20040C4F202000490FFF7EAFEA0
:100520000299059A40F60000C4F20200FFF7E2FECD
:100530000398059A0921FFF7DDFE0398059A082123
:10054000FFF7D8FE0498059A0A21FFF7D3FE06B0FC
:1005500080BDF1EE100A4FF6FF71C0F2C03120EA03
:10056000010040F04070E1EE100A7047900500086D
:100570000000002008000000D401000898050008D1
:100580000800002060060000F001000800000000E4
:080590000024F400000000004B
:040000050800019955
:00000001FF
