:020000040800F2
:100000006806002039020008410200084302000887
:1000100045020008470200084902000800000000ED
:100020000000000000000000000000004B0200087B
:100030004D020008000000004F02000851020008B5
:10004000530200085302000853020008530200083C
:10005000530200085302000853020008530200082C
:10006000530200085302000853020008530200081C
:10007000530200085302000853020008530200080C
:100080005302000853020008530200080000000059
:100090000000000000000000000000005302000803
:1000A00053020008530200085302000853020008DC
:1000B00053020008530200085302000853020008CC
:1000C00053020008530200085302000853020008BC
:1000D0005302000853020008530200080000000009
:1000E00053020008530200085302000800000000F9
:1000F00000000000000000000000000053020008A3
:1001000000000000530200085302000853020008D8
:1001100000000000000000000000000000000000DF
:10012000530200085302000853020008530200085B
:100130005302000800000000000000000000000062
:100140000000000000000000000000005302000852
:10015000530200085302000853020008530200082B
:1001600053020008530200080000000000000000D5
:10017000000000000000000000000000000000007F
:100180000000000053020008000000000000000012
:10019000530200085302000800F002F800F03CF897
:1001A0000AA090E8000C82448344AAF10107DA45D2
:1001B00001D100F031F8AFF2090EBAE80F0013F0E8
:1001C000010F18BFFB1A43F001031847780700001E
:1001D00098070000103A24BF78C878C1FAD85207AF
:1001E00024BF30C830C144BF04680C6070470000B1
:1001F0000023002400250026103A28BF78C1FBD830
:10020000520728BF30C148BF0B6070471FB500F0D0
:1002100000FB1FBD10B510BD00F063F81146FFF7DD
:10022000F5FF00F099F900F081F803B4FFF7F2FF51
:1002300003BC00F089F800000948804709480047DE
:10024000FEE7FEE7FEE7FEE7FEE7FEE7FEE7FEE786
:10025000FEE7FEE704480549054A064B70470000E3
:100260004505000899010008680000206806002084
:10027000680200206802002010B5203AC0F00B8010
:10028000B1E81850A0E81850B1E81850A0E818508C
:10029000203ABFF4F5AF5FEA027C24BFB1E8185002
:1002A000A0E8185044BF18C918C0BDE810405FEA64
:1002B000827C24BF51F8043B40F8043B08BF7047E0
:1002C000D20728BF31F8023B48BF11F8012B28BFE5
:1002D00020F8023B48BF00F8012B70477047704779
:1002E0007047754600F02CF8AE4605006946534647
:1002F00020F00700854618B020B5FFF7ABFFBDE83A
:1003000020404FF000064FF000074FF000084FF07C
:10031000000BAC46ACE8C009ACE8C009ACE8C009C9
:10032000ACE8C00921F007018D46704710B50446BE
:10033000AFF300802046BDE81040FFF776BF000015
:10034000004870470800002001491820ABBEFEE7B6
:10035000260002007047000080B584B0039002912F
:10036000019203980021C4F20201884203D1FFE701
:1003700000F092F8FFE7039840F20041C4F2020156
:10038000884203D1FFE700F093F8FFE7039840F6B7
:100390000001C4F20201884203D1FFE700F094F8A3
:1003A000FFE703980299019A00F002F804B080BDBB
:1003B00083B002900191009201984100032000FA5D
:1003C00001F2029908689043086000980199490079
:1003D00000FA01F2029908681043086003B0704700
:1003E00083B002900191009200980199490000FAAF
:1003F00001F2029988689043886000980199490049
:1004000000FA01F2029988681043886003B07047CF
:1004100083B00290019100920098019900FA01F2D4
:10042000029948689043486003B0704783B00290D7
:100430000191009200980199490000FA01F2029995
:10044000C8689043C8600299C868C86003B0704724
:1004500083B002900191029800690199C84000F0B0
:1004600001000090009803B07047000083B0029034
:10047000019100920199012000FA01F20299486964
:10048000904348610098019900FA01F20299486985
:100490001043486103B0704780B500F021F843F67F
:1004A0003001C4F20201086840F00100086080BD1C
:1004B00080B500F015F843F63001C4F20201086877
:1004C00040F00200086080BD80B500F009F843F6F6
:1004D0003001C4F20201086840F00400086080BDE9
:1004E00043F60001C4F20201086840F00100086010
:1004F000FFE743F60000C4F202000068800700280E
:1005000001D4FFE7F5E743F60801C4F202010868E9
:1005100020F00300086008680860FFE743F6080061
:10052000C4F20200006810F00C0F01D0FFE7F5E7FD
:1005300040F20001C2F2000142F20040C0F2F400B9
:10054000086070474EF68851CEF20001086840F40A
:10055000700008607047000080B584B000200090F3
:10056000039000F037F800980290FFE702984CF6ED
:10057000CD41CCF6CC41A0FB0121C90801EB8101A2
:10058000A0EB410000F034F840F60000C4F2020095
:100590000D21FFF75DFF20B9FFE7029801300290BF
:1005A000FFE702980A2803D3FFE700200290FFE745
:1005B00000200190FFE701984AF21F11C0F20701E5
:1005C000884205DCFFE7FFE7019801300190F2E780
:1005D000CCE7000080B5FFF783FF40F60000C4F2CF
:1005E00002000D210022FFF7B7FE00F06FF880BD7A
:1005F00080B5CAB08DF8270140F62C01C0F6000185
:1006000003A801904FF48C72FFF736FE01989DF815
:100610002711C1EBC10150F821200020C4F20200D3
:1006200000900821FFF722FF01989DF82711C1EBE8
:10063000C10100EB8100426840F20040C4F20200B8
:100640000A21FFF713FF009801999DF82721C2EBBB
:10065000C20201EB82018A6807210291FFF706FFBF
:10066000009801999DF82721C2EBC20201EB82019B
:10067000CA680621FFF7FAFE009801999DF8272124
:10068000C2EBC20201EB82010A690521FFF7EEFE0F
:10069000009801999DF82721C2EBC20201EB82016B
:1006A0004A690921FFF7E2FE019802999DF8272186
:1006B000C2EBC20200EB8200826940F60000C4F285
:1006C0000200FFF7D3FE4AB080BD000080B58CB0B9
:1006D0000020C4F2020006900821019101220B9231
:1006E000FFF73AFE0199069800220892FFF790FE64
:1006F00001990698089AFFF799FE019906980B9AB6
:10070000FFF76EFE0B9A40F20040C4F20200029026
:100710000A210391FFF720FE02980399089AFFF738
:1007200077FE02980399089AFFF780FE02980399D2
:100730000B9AFFF755FE06980B9A07210A91FFF7CF
:100740000BFE0698089A0A99FFF762FE0698089A27
:100750000A99FFF76BFE06980A990B9AFFF740FE7D
:1007600006980B9A06210491FFF7F6FD0499069866
:10077000089AFFF74DFE04990698089AFFF756FE6F
:10078000049906980B9AFFF72BFE06980B9A052101
:100790000591FFF7E1FD05990698089AFFF738FEE5
:1007A00005990698089AFFF741FE059906980B9A55
:1007B000FFF716FE06980B9A09210791FFF7CCFD6B
:1007C00006980799089AFFF723FE06980799089A52
:1007D000FFF72CFE069807990B9AFFF701FE0A997E
:1007E0000B9A40F60000C4F202000990FFF7B4FD36
:1007F000089A09980A99FFF70BFE089A09980A992E
:10080000FFF714FE09980A990B9AFFF7E9FD0CB05F
:1008100080BDF1EE100A4FF6FF71C0F2C03120EA40
:10082000010040F04070E1EE100A70470000000047
:1008300000000000000000000000000000000000B8
:1008400000000000010000000100000000000000A6
:100850000000000001000000010000000100000095
:100860000100000000000000000000000100000086
:100870000000000000000000010000000000000077
:100880000000000000000000000000000000000068
:100890000100000001000000000000000100000055
:1008A0000000000000000000010000000100000046
:1008B0000000000000000000000000000100000037
:1008C0000000000000000000010000000000000027
:1008D0000000000000000000010000000000000017
:1008E0000000000000000000000000000000000008
:1008F00000000000000000000000000001000000F7
:1009000001000000000000000100000000000000E5
:1009100000000000000000000000000000000000D7
:1009200000000000000000000000000000000000C7
:1009300000000000000000000100000000000000B6
:100940000000000068090008000000200800000006
:10095000D4010008700900080800002060060000AB
:10096000F0010008000000000024F4000000000076
:040000050800019955
:00000001FF
