:020000040800F2
:10000000A8070020590200086102000863020008E6
:10001000650200086702000869020008000000008D
:100020000000000000000000000000006B0200085B
:100030006D020008000000006F0200087102000855
:1000400073020008730200087302000873020008BC
:1000500073020008730200087302000873020008AC
:10006000730200087302000873020008730200089C
:10007000730200087302000873020008730200088C
:1000800073020008730200087302000800000000F9
:1000900000000000000000000000000073020008E3
:1000A000730200087302000873020008730200085C
:1000B000730200087302000873020008730200084C
:1000C000730200087302000873020008730200083C
:1000D00073020008730200087302000800000000A9
:1000E0007302000873020008730200080000000099
:1000F0000000000000000000000000007302000883
:100100000000000073020008730200087302000878
:1001100000000000000000000000000000000000DF
:1001200073020008730200087302000873020008DB
:100130007302000800000000000000000000000042
:100140000000000000000000000000007302000832
:1001500073020008730200087302000873020008AB
:100160007302000873020008000000000000000095
:10017000000000000000000000000000000000007F
:1001800000000000730200080000000000000000F2
:10019000730200087302000800F002F800F04CF847
:1001A0000AA090E8000C82448344AAF10107DA45D2
:1001B00001D100F041F8AFF2090EBAE80F0013F0D8
:1001C000010F18BFFB1A43F001031847E8050000B0
:1001D000080600000A4410F8014B14F00F0508BF90
:1001E00010F8015B240908BF10F8014B6D1E05D003
:1001F00010F8013B6D1E01F8013BF9D1641E03D0DC
:10020000641E01F8015BFBD19142E4D3704700000A
:100210000023002400250026103A28BF78C1FBD80F
:10022000520728BF30C148BF0B6070471FB500F0B0
:10023000B4FA1FBD10B510BD00F031F81146FFF73C
:10024000F5FF00F083F900F04FF803B4FFF7F2FF79
:1002500003BC00F057F800000948804709480047F0
:10026000FEE7FEE7FEE7FEE7FEE7FEE7FEE7FEE766
:10027000FEE7FEE704480549054A064B70470000C3
:100280003905000899010008A8010020A8070020EE
:10029000A8030020A80300207047704770477546E8
:1002A00000F02CF8AE4605006946534620F00700E2
:1002B000854618B020B5FFF7DDFFBDE820404FF0C0
:1002C00000064FF000074FF000084FF0000BAC465F
:1002D000ACE8C009ACE8C009ACE8C009ACE8C009AA
:1002E00021F007018D46704710B50446AFF300803A
:1002F0002046BDE81040FFF7A8BF00000048704747
:100300004801002001491820ABBEFEE7260002008C
:100310007047000080B584B0039002910192039869
:100320000021C4F20201884203D1FFE700F0AEF8D9
:10033000FFE7039840F20041C4F20201884203D172
:10034000FFE700F0AFF8FFE7039840F60001C4F2C2
:100350000201884203D1FFE700F0B0F8FFE70398FD
:1003600040F60041C4F20201884203D1FFE700F0E9
:1003700099F8FFE7039841F20001C4F202018842B4
:1003800003D1FFE700F09AF8FFE703980299019A7A
:1003900000F002F804B080BD83B002900191009299
:1003A00001984100032000FA01F202990868904385
:1003B000086000980199490000FA01F20299086862
:1003C0001043086003B0704783B00290019100921F
:1003D00001984100032000FA01F2029988689043D5
:1003E000886000980199490000FA01F20299886832
:1003F0001043886003B0704783B00290019100926F
:100400000098019900FA01F2029948689043486007
:1004100003B0704783B002900191009201984100AF
:10042000032000FA01F20299C8689043C86000985E
:100430000199490000FA01F20299C8681043C860A6
:1004400003B0704783B0029001910298006901994E
:10045000C84000F001000090009803B07047000011
:1004600083B00290019100920199012000FA01F2FB
:1004700002994869904348610098019900FA01F295
:10048000029948691043486103B0704780B500F095
:1004900021F843F63001C4F20201086840F001007F
:1004A000086080BD80B500F015F843F63001C4F255
:1004B0000201086840F00200086080BD80B500F0CD
:1004C00009F843F63001C4F20201086840F0040064
:1004D000086080BD43F60001C4F20201086840F0E4
:1004E00001000860FFE743F60000C4F20200006864
:1004F0008007002801D4FFE7F5E743F60801C4F2BE
:100500000201086820F00300086008680860FFE73F
:1005100043F60800C4F20200006810F00C0F01D08E
:10052000FFE7F5E740F20001C2F2000142F20040AD
:10053000C0F2F400086070474EF68851CEF2000118
:10054000086840F4700008607047000080B584B00F
:1005500000200090039000F037F800980290FFE729
:1005600002984CF6CD41CCF6CC41A0FB0121C90844
:1005700001EB8101A0EB410000F03EF840F60000E5
:10058000C4F202000D21FFF75DFF20B9FFE70298DA
:1005900001300290FFE702980A2803D3FFE700200A
:1005A0000290FFE700200190FFE7019849F2DF3158
:1005B000C0F20401884205DCFFE7FFE70198013043
:1005C0000190F2E7CCE7000080B582B0FFF782FF30
:1005D00040F60000C4F2020000900D2101910022BB
:1005E000FFF798FE009801990222FFF713FF00F031
:1005F00069F802B080BD000080B586B08DF81700A4
:100600009DF81700410140F20400C2F20000029080
:1006100042580020C4F2020000900821FFF720FF9A
:1006200002989DF8171000EB4110426840F200401C
:10063000C4F2020003900A21FFF712FF009802990A
:100640009DF8172001EB42118A6807210191FFF7FD
:1006500007FF009802999DF8172001EB4211CA6824
:1006600006210491FFF7FCFE009802999DF81720DF
:1006700001EB42110A690521FFF7F2FE0098029989
:100680009DF8172001EB42114A690921FFF7E8FEA6
:10069000019902989DF8172000EB4210826940F6FC
:1006A0000000C4F20200FFF7DBFE029A03980499EF
:1006B0009DF8173002EB4312D269FFF7D1FE06B066
:1006C00080BD000080B58AB005200990FFE7099839
:1006D0000A282CDCFFE70020089009980A2806D198
:1006E000FFE740F20040C4F20200089004E000205E
:1006F000C4F202000890FFE70898099901220792C6
:10070000FFF708FE0898099900220692FFF774FE89
:10071000069A08980999FFF77DFE079A08980999A3
:10072000FFF752FEFFE7099801300990CFE740F646
:100730000000C4F2020000900721019101220592FD
:10074000FFF7E8FD0098019900220292FFF754FE9E
:1007500000980199029AFFF75DFE00980199059AA9
:10076000FFF732FE059A40F20040C4F20200039007
:1007700006210491FFF7CEFD029A03980499FFF732
:100780003BFE029A03980499FFF744FE03980499EC
:10079000059AFFF719FE0AB080BDF1EE100A4FF678
:1007A000FF71C0F2C03120EA010040F04070E1EE7C
:1007B000100A7047D8070008000000204801000018
:1007C000D40100082008000848010020600600004D
:1007D0001002000800000000041A0024F442014244
:1007E00001C2014201420142014201C201C2018231
:1007F00001021401420182014201C2014201C2010F
:100800008201C201C20182010218010210014201EB
:1008100082014201022001021401C2018201000092
:040000050800019955
:00000001FF
